{
    "abi": [
        {
            "type": "constructor",
            "inputs": [
                {
                    "name": "_tokenAddress",
                    "type": "address",
                    "internalType": "address"
                }
            ],
            "stateMutability": "nonpayable"
        },
        {
            "type": "function",
            "name": "balanceOf",
            "inputs": [
                {
                    "name": "_user",
                    "type": "address",
                    "internalType": "address"
                }
            ],
            "outputs": [
                {
                    "name": "",
                    "type": "uint256",
                    "internalType": "uint256"
                }
            ],
            "stateMutability": "view"
        },
        {
            "type": "function",
            "name": "deposit",
            "inputs": [
                {
                    "name": "_amount",
                    "type": "uint256",
                    "internalType": "uint256"
                }
            ],
            "outputs": [],
            "stateMutability": "nonpayable"
        },
        {
            "type": "function",
            "name": "deposits",
            "inputs": [
                {
                    "name": "",
                    "type": "address",
                    "internalType": "address"
                }
            ],
            "outputs": [
                {
                    "name": "",
                    "type": "uint256",
                    "internalType": "uint256"
                }
            ],
            "stateMutability": "view"
        },
        {
            "type": "function",
            "name": "token",
            "inputs": [],
            "outputs": [
                {
                    "name": "",
                    "type": "address",
                    "internalType": "contract IERC20"
                }
            ],
            "stateMutability": "view"
        },
        {
            "type": "function",
            "name": "withdraw",
            "inputs": [
                {
                    "name": "_amount",
                    "type": "uint256",
                    "internalType": "uint256"
                }
            ],
            "outputs": [],
            "stateMutability": "nonpayable"
        },
        {
            "type": "event",
            "name": "Deposit",
            "inputs": [
                {
                    "name": "user",
                    "type": "address",
                    "indexed": true,
                    "internalType": "address"
                },
                {
                    "name": "amount",
                    "type": "uint256",
                    "indexed": false,
                    "internalType": "uint256"
                }
            ],
            "anonymous": false
        },
        {
            "type": "event",
            "name": "Withdraw",
            "inputs": [
                {
                    "name": "user",
                    "type": "address",
                    "indexed": true,
                    "internalType": "address"
                },
                {
                    "name": "amount",
                    "type": "uint256",
                    "indexed": false,
                    "internalType": "uint256"
                }
            ],
            "anonymous": false
        }
    ],
    "bytecode": {
        "object": "0x608060405234801561000f575f80fd5b50604051610ea9380380610ea983398181016040528101906100319190610142565b5f73ffffffffffffffffffffffffffffffffffffffff168173ffffffffffffffffffffffffffffffffffffffff160361009f576040517f08c379a0000000000000000000000000000000000000000000000000000000008152600401610096906101ed565b60405180910390fd5b805f806101000a81548173ffffffffffffffffffffffffffffffffffffffff021916908373ffffffffffffffffffffffffffffffffffffffff1602179055505061020b565b5f80fd5b5f73ffffffffffffffffffffffffffffffffffffffff82169050919050565b5f610111826100e8565b9050919050565b61012181610107565b811461012b575f80fd5b50565b5f8151905061013c81610118565b92915050565b5f60208284031215610157576101566100e4565b5b5f6101648482850161012e565b91505092915050565b5f82825260208201905092915050565b7f546f6b656e42616e6b3a20746f6b656e20616464726573732063616e6e6f74205f8201527f6265207a65726f00000000000000000000000000000000000000000000000000602082015250565b5f6101d760278361016d565b91506101e28261017d565b604082019050919050565b5f6020820190508181035f830152610204816101cb565b9050919050565b610c91806102185f395ff3fe608060405234801561000f575f80fd5b5060043610610055575f3560e01c80632e1a7d4d1461005957806370a0823114610075578063b6b55f25146100a5578063fc0c546a146100c1578063fc7e286d146100df575b5f80fd5b610073600480360381019061006e91906106a9565b61010f565b005b61008f600480360381019061008a919061072e565b610354565b60405161009c9190610768565b60405180910390f35b6100bf60048036038101906100ba91906106a9565b61039a565b005b6100c961063a565b6040516100d691906107dc565b60405180910390f35b6100f960048036038101906100f4919061072e565b61065d565b6040516101069190610768565b60405180910390f35b5f8111610151576040517f08c379a000000000000000000000000000000000000000000000000000000000815260040161014890610875565b60405180910390fd5b8060015f3373ffffffffffffffffffffffffffffffffffffffff1673ffffffffffffffffffffffffffffffffffffffff1681526020019081526020015f205410156101d1576040517f08c379a00000000000000000000000000000000000000000000000000000000081526004016101c890610903565b60405180910390fd5b8060015f3373ffffffffffffffffffffffffffffffffffffffff1673ffffffffffffffffffffffffffffffffffffffff1681526020019081526020015f205f82825461021d919061094e565b925050819055505f805f9054906101000a900473ffffffffffffffffffffffffffffffffffffffff1673ffffffffffffffffffffffffffffffffffffffff1663a9059cbb33846040518363ffffffff1660e01b8152600401610280929190610990565b6020604051808303815f875af115801561029c573d5f803e3d5ffd5b505050506040513d601f19601f820116820180604052508101906102c091906109ec565b905080610302576040517f08c379a00000000000000000000000000000000000000000000000000000000081526004016102f990610a61565b60405180910390fd5b3373ffffffffffffffffffffffffffffffffffffffff167f884edad9ce6fa2440d8a54cc123490eb96d2768479d49ff9c7366125a9424364836040516103489190610768565b60405180910390a25050565b5f60015f8373ffffffffffffffffffffffffffffffffffffffff1673ffffffffffffffffffffffffffffffffffffffff1681526020019081526020015f20549050919050565b5f81116103dc576040517f08c379a00000000000000000000000000000000000000000000000000000000081526004016103d390610aef565b60405180910390fd5b805f8054906101000a900473ffffffffffffffffffffffffffffffffffffffff1673ffffffffffffffffffffffffffffffffffffffff166370a08231336040518263ffffffff1660e01b81526004016104359190610b0d565b602060405180830381865afa158015610450573d5f803e3d5ffd5b505050506040513d601f19601f820116820180604052508101906104749190610b3a565b10156104b5576040517f08c379a00000000000000000000000000000000000000000000000000000000081526004016104ac90610bd5565b60405180910390fd5b5f805f9054906101000a900473ffffffffffffffffffffffffffffffffffffffff1673ffffffffffffffffffffffffffffffffffffffff166323b872dd3330856040518463ffffffff1660e01b815260040161051393929190610bf3565b6020604051808303815f875af115801561052f573d5f803e3d5ffd5b505050506040513d601f19601f8201168201806040525081019061055391906109ec565b905080610595576040517f08c379a000000000000000000000000000000000000000000000000000000000815260040161058c90610a61565b60405180910390fd5b8160015f3373ffffffffffffffffffffffffffffffffffffffff1673ffffffffffffffffffffffffffffffffffffffff1681526020019081526020015f205f8282546105e19190610c28565b925050819055503373ffffffffffffffffffffffffffffffffffffffff167fe1fffcc4923d04b559f4d29a8bfc6cda04eb5b0d3c460751c2402c5c5cc9109c8360405161062e9190610768565b60405180910390a25050565b5f8054906101000a900473ffffffffffffffffffffffffffffffffffffffff1681565b6001602052805f5260405f205f915090505481565b5f80fd5b5f819050919050565b61068881610676565b8114610692575f80fd5b50565b5f813590506106a38161067f565b92915050565b5f602082840312156106be576106bd610672565b5b5f6106cb84828501610695565b91505092915050565b5f73ffffffffffffffffffffffffffffffffffffffff82169050919050565b5f6106fd826106d4565b9050919050565b61070d816106f3565b8114610717575f80fd5b50565b5f8135905061072881610704565b92915050565b5f6020828403121561074357610742610672565b5b5f6107508482850161071a565b91505092915050565b61076281610676565b82525050565b5f60208201905061077b5f830184610759565b92915050565b5f819050919050565b5f6107a461079f61079a846106d4565b610781565b6106d4565b9050919050565b5f6107b58261078a565b9050919050565b5f6107c6826107ab565b9050919050565b6107d6816107bc565b82525050565b5f6020820190506107ef5f8301846107cd565b92915050565b5f82825260208201905092915050565b7f546f6b656e42616e6b3a20776974686472617720616d6f756e74206d757374205f8201527f62652067726561746572207468616e207a65726f000000000000000000000000602082015250565b5f61085f6034836107f5565b915061086a82610805565b604082019050919050565b5f6020820190508181035f83015261088c81610853565b9050919050565b7f546f6b656e42616e6b3a20696e73756666696369656e74206465706f736974205f8201527f62616c616e636500000000000000000000000000000000000000000000000000602082015250565b5f6108ed6027836107f5565b91506108f882610893565b604082019050919050565b5f6020820190508181035f83015261091a816108e1565b9050919050565b7f4e487b71000000000000000000000000000000000000000000000000000000005f52601160045260245ffd5b5f61095882610676565b915061096383610676565b925082820390508181111561097b5761097a610921565b5b92915050565b61098a816106f3565b82525050565b5f6040820190506109a35f830185610981565b6109b06020830184610759565b9392505050565b5f8115159050919050565b6109cb816109b7565b81146109d5575f80fd5b50565b5f815190506109e6816109c2565b92915050565b5f60208284031215610a0157610a00610672565b5b5f610a0e848285016109d8565b91505092915050565b7f546f6b656e42616e6b3a207472616e73666572206661696c65640000000000005f82015250565b5f610a4b601a836107f5565b9150610a5682610a17565b602082019050919050565b5f6020820190508181035f830152610a7881610a3f565b9050919050565b7f546f6b656e42616e6b3a206465706f73697420616d6f756e74206d75737420625f8201527f652067726561746572207468616e207a65726f00000000000000000000000000602082015250565b5f610ad96033836107f5565b9150610ae482610a7f565b604082019050919050565b5f6020820190508181035f830152610b0681610acd565b9050919050565b5f602082019050610b205f830184610981565b92915050565b5f81519050610b348161067f565b92915050565b5f60208284031215610b4f57610b4e610672565b5b5f610b5c84828501610b26565b91505092915050565b7f546f6b656e42616e6b3a20696e73756666696369656e7420746f6b656e2062615f8201527f6c616e6365000000000000000000000000000000000000000000000000000000602082015250565b5f610bbf6025836107f5565b9150610bca82610b65565b604082019050919050565b5f6020820190508181035f830152610bec81610bb3565b9050919050565b5f606082019050610c065f830186610981565b610c136020830185610981565b610c206040830184610759565b949350505050565b5f610c3282610676565b9150610c3d83610676565b9250828201905080821115610c5557610c54610921565b5b9291505056fea2646970667358221220a874b3453dc59a61de89e82bb61a74b6154703e5da9f9eea33e733ee3cd806d464736f6c63430008190033",
        "linkReferences": {}
    },
    "methodIdentifiers": {
        "balanceOf(address)": "70a08231",
        "deposit(uint256)": "b6b55f25",
        "deposits(address)": "fc7e286d",
        "token()": "fc0c546a",
        "withdraw(uint256)": "2e1a7d4d"
    },
    "id": 16
}